{
  "_format": "hh-sol-artifact-1",
  "contractName": "FHEGame2048",
  "sourceName": "contracts/FHEGame2048.sol",
  "abi": [
    {
      "inputs": [
        {
          "internalType": "address",
          "name": "gamer",
          "type": "address"
        }
      ],
      "name": "fetchCipherScores",
      "outputs": [
        {
          "internalType": "euint32[]",
          "name": "scores",
          "type": "bytes32[]"
        }
      ],
      "stateMutability": "view",
      "type": "function"
    },
    {
      "inputs": [
        {
          "internalType": "address",
          "name": "gamer",
          "type": "address"
        }
      ],
      "name": "getRunCount",
      "outputs": [
        {
          "internalType": "uint256",
          "name": "totalRuns",
          "type": "uint256"
        }
      ],
      "stateMutability": "view",
      "type": "function"
    },
    {
      "inputs": [
        {
          "internalType": "address",
          "name": "gamer",
          "type": "address"
        }
      ],
      "name": "hasEncryptedData",
      "outputs": [
        {
          "internalType": "bool",
          "name": "hasData",
          "type": "bool"
        }
      ],
      "stateMutability": "view",
      "type": "function"
    },
    {
      "inputs": [],
      "name": "protocolId",
      "outputs": [
        {
          "internalType": "uint256",
          "name": "",
          "type": "uint256"
        }
      ],
      "stateMutability": "pure",
      "type": "function"
    },
    {
      "inputs": [
        {
          "internalType": "externalEuint32",
          "name": "cipherScore",
          "type": "bytes32"
        },
        {
          "internalType": "bytes",
          "name": "zkProof",
          "type": "bytes"
        }
      ],
      "name": "recordEncryptedRun",
      "outputs": [],
      "stateMutability": "nonpayable",
      "type": "function"
    }
  ],
  "bytecode": "0x608060405234801561000f575f5ffd5b5061018a6100ae604080516080810182525f80825260208201819052918101829052606081019190915250604080516080810182527350157cffd6bbfa2dece204a89ec419c23ef5755d815273cd3ab3bd6bcc0c0bf3e27912a92043e817b1cf69602082015273a02cda4ca3a71d7c46997716f4283aa851c2881291810191909152731364cbbf2cdf5032c47d8226a6f6fbd2afcdacac606082015290565b80517f9e7b61f58c47dc699ac88507c4f5bb9f121c03808c5676a8078fe583e464970080546001600160a01b03199081166001600160a01b039384161790915560208301517f9e7b61f58c47dc699ac88507c4f5bb9f121c03808c5676a8078fe583e46497018054831691841691909117905560408301517f9e7b61f58c47dc699ac88507c4f5bb9f121c03808c5676a8078fe583e46497028054831691841691909117905560608301517f9e7b61f58c47dc699ac88507c4f5bb9f121c03808c5676a8078fe583e46497038054909216921691909117905550565b610552806101975f395ff3fe608060405234801561000f575f5ffd5b5060043610610064575f3560e01c806353e893341161004d57806353e89334146100a657806390eafd83146100dc578063da1f12ab14610116575f5ffd5b8063380be668146100685780634c0826d514610091575b5f5ffd5b61007b6100763660046103e0565b61011e565b6040516100889190610406565b60405180910390f35b6100a461009f366004610448565b610185565b005b6100ce6100b43660046103e0565b6001600160a01b03165f9081526020819052604090205490565b604051908152602001610088565b6101066100ea3660046103e0565b6001600160a01b03165f90815260208190526040902054151590565b6040519015158152602001610088565b6127116100ce565b6001600160a01b0381165f908152602081815260409182902080548351818402810184019094528084526060939283018282801561017957602002820191905f5260205f20905b815481526020019060010190808311610165575b50505050509050919050565b5f6101c58484848080601f0160208091040260200160405190810160405280939291908181526020018383808284375f9201919091525061020292505050565b90506101d081610216565b50335f81815260208181526040822080546001810182559083529120018290556101fb908290610225565b5050505050565b5f61020f83836004610237565b9392505050565b5f6102218230610357565b5090565b5f6102308383610357565b5090919050565b7f9e7b61f58c47dc699ac88507c4f5bb9f121c03808c5676a8078fe583e46497015460405163196d0b9b60e01b81525f917f9e7b61f58c47dc699ac88507c4f5bb9f121c03808c5676a8078fe583e4649700916001600160a01b039091169063196d0b9b906102b09088903390899089906004016104bf565b6020604051808303815f875af11580156102cc573d5f5f3e3d5ffd5b505050506040513d601f19601f820116820180604052508101906102f0919061052e565b8154604051630f8e573b60e21b8152600481018390523360248201529193506001600160a01b031690633e395cec906044015f604051808303815f87803b158015610339575f5ffd5b505af115801561034b573d5f5f3e3d5ffd5b50505050509392505050565b5f7f9e7b61f58c47dc699ac88507c4f5bb9f121c03808c5676a8078fe583e46497008054604051635ca4b5b160e11b8152600481018690526001600160a01b03858116602483015292935091169063b9496b62906044015f604051808303815f87803b1580156103c5575f5ffd5b505af11580156103d7573d5f5f3e3d5ffd5b50505050505050565b5f602082840312156103f0575f5ffd5b81356001600160a01b038116811461020f575f5ffd5b602080825282518282018190525f918401906040840190835b8181101561043d57835183526020938401939092019160010161041f565b509095945050505050565b5f5f5f6040848603121561045a575f5ffd5b83359250602084013567ffffffffffffffff811115610477575f5ffd5b8401601f81018613610487575f5ffd5b803567ffffffffffffffff81111561049d575f5ffd5b8660208284010111156104ae575f5ffd5b939660209190910195509293505050565b8481526001600160a01b0384166020820152608060408201525f8351806080840152806020860160a085015e5f60a0828501015260a0601f19601f8301168401019150506054831061051f57634e487b7160e01b5f52602160045260245ffd5b82606083015295945050505050565b5f6020828403121561053e575f5ffd5b505191905056fea164736f6c634300081b000a",
  "linkReferences": {},
  "deployedLinkReferences": {}
}